:020000001028C6
:10000800FE00030EFA000408FB000A08FC00831235
:1000180003137F08FD00AE291128BF01C001C101EB
:10002800C201C301C401C501C601C701C8017622C6
:10003800A0007722A1007822A2007922A3007A22C8
:10004800A4007B22A5007C22A6007D22A7007E2298
:10005800A8007F22A9008022AA008122AB00822268
:10006800AC008322AD008422AE008522AF0083015C
:100078003D2883120313C701C501C6018501860106
:100088008316031385010630860007308312031395
:100098009F000C3083160313990018139812181236
:1000A80018158312031398171813181683160313B9
:1000B80098168C160B178B178312981C6528181224
:1000C8001816460845040319AF280030BE00003052
:1000D800BD000030BC000030BB0000303E02031DF4
:1000E8007F2800303D02031D7F2800303C02031D9D
:1000F8007F2804303B020318AD2883160313981C8D
:100108008128831203133B084807B9003908840083
:100118008313000899000130BB0700300318013031
:10012800BC07003003180130BD0700300318013048
:10013800BE0700303E02031DAB2800303D02031D00
:10014800AB2800303C02031DAB2804303B02031CE3
:100158008128C501C601061605140030BE0000300E
:10016800BD000030BC000030BB0000303E02031D63
:10017800C72800303D02031DC72800303C02031D7C
:10018800C72819303B020318F2280D30BA00FB309B
:10019800B900B90BCD28BA0BCD28D228013083126B
:1001A8000313BB07003003180130BC0700300318E5
:1001B8000130BD07003003180130BE0700303E0291
:1001C800031DF02800303D02031DF02800303C02DA
:1001D800031DF02819303B02031CC928C708031D5A
:1001E80036290030BE000030BD000030BC000030B1
:1001F800BB0000303E02031D0B2900303D02031DE9
:100208000B2900303C02031D0B2919303B0203184F
:1002180036290D30BA00FB30B900B90B1129BA0BD9
:1002280011291629013083120313BB070030031864
:100238000130BC07003003180130BD070030031837
:100248000130BE0700303E02031D342900303D0254
:10025800031D342900303C02031D342919303B02A8
:10026800031C0D29061205100030BE000030BD0029
:100278000030BC000030BB0000303E02031D4E2998
:1002880000303D02031D4E2900303C02031D4E295B
:1002980032303B02031879290D30BA00FB30B9001F
:1002A800B90B5429BA0B5429592901308312031365
:1002B800BB07003003180130BC07003003180130B9
:1002C800BD07003003180130BE0700303E02031D91
:1002D800772900303D02031D772900303C02031DB9
:1002E800772932303B02031C5029C708031D6028B8
:1002F8000030BE000030BD000030BC000030BB0044
:1003080000303E02031D922900303D02031D922950
:1003180000303C02031D922919303B020318602863
:100328000D30BA00FB30B900B90B9829BA0B9829DF
:100338009D29013083120313BB07003003180130D5
:10034800BC07003003180130BD0700300318013026
:10035800BE078429B401B001B101B201B30183120F
:1003680003138C1E182A1A08F9007908B400181902
:10037800B3294408803AFF0080307F02031DC62954
:1003880004304302031CCC2983120313C301C401A4
:10039800831203133408F90043083F3E84007908A8
:1003A800831380000130C3070318C40A0030C40750
:1003B80034080A3A031DB3294408B101B1074308B8
:1003C800B001B007B201B3012430232271087004D0
:1003D8000319F32983120313C7018612002A203058
:1003E8002322710870040319022A0130F9007908E0
:1003F80083120313C70086162830102A2C302322B4
:10040800710870040319B32983120313C708031D65
:100418000F2A2430102A2030F9007908C80001304A
:10042800C5000030C600B3297D08FF007C088A009B
:100438007B0884007A0E8300FE0E7E0E0900F4000D
:10044800F701F801831203134408F601F60743087D
:10045800F501F507F701F8017808803AFF008030C8
:100468007F02031D392A043077020318712A76089F
:10047800803AFF0080307F02031D442A0430750251
:10048800031C482AF501F60175083F3E84008313D2
:100498000008F20077087407F30073088400000866
:1004A800720603195A2AF001F10108000130F50714
:1004B8000318F60A0030F6070130F7070318F80AA0
:1004C8000030F8077808803AFF0080307F02031D6B
:1004D8006F2A04307702031C3B2A0130F0000030F9
:1004E800F1000800623465340D340A346B34693421
:1004F8000D340A346F346B340D340A347334743465
:040508000D340A3470
:02400E002AFF87
:00000001FF
